:020000040800F2
:10500000600C0020AD5100087DAD000829A100080A
:10501000B9AC00085D5A0008F1CC0008000000009F
:105020000000000000000000000000008DAF00083C
:1050300007670008000000007FAD0008CDBD000834
:10504000C7510008C7510008C7510008C7510008E0
:10505000C7510008C7510008C7510008C7510008D0
:10506000C7510008C7510008C7510008C7510008C0
:10507000C7510008C7510008FD6100080962000817
:10508000C7510008C7510008C7510008C7510008A0
:10509000C7510008C7510008C7510008C751000890
:1050A000C7510008C7510008C7510008C751000880
:1050B000C7510008C7510008C7510008C751000870
:1050C000C7510008C7510008C7510008C751000860
:1050D000C75100082DCC0008C7510008C75100086F
:1050E000C7510008C7510008C751000800F002F876
:1050F00000F04CF80AA090E8000C82448344AAF126
:105100000107DA4501D100F041F8AFF2090EBAE823
:105110000F0013F0010F18BFFB1A43F001031847EB
:10512000A0C10000C0C10000103A24BF78C878C1F7
:10513000FAD8520724BF30C830C144BF04680C609D
:10514000704700000023002400250026103A28BFE5
:1051500078C1FBD8520728BF30C148BF0B607047E9
:10516000642900F0FD80782900F03681632900F081
:10517000F882732900F0FD82002070471FB59DE87A
:10518000030000F037FA1FBD10B510BD00F01CFB86
:105190001146FFF7F3FF09F027F800F03AFB03B4DC
:1051A000FFF7F2FF03BC00F06BFB000009488047EB
:1051B00009480047FEE7FEE7FEE7FEE7FEE7FEE7F9
:1051C000FEE7FEE7FEE7FEE704480549054A064B11
:1051D00070470000C9BE0008ED50000860060020BE
:1051E000600C0020600800206008002070B50646B2
:1051F00000F0E4F9056806F10B0020F00704B44262
:105200009CBF002070BD2B466A68BAB11068A042EE
:1052100010D304F1080188423CBF5068586007D39E
:105220005168101941601168091B016058601460D1
:10523000101D70BD13465268002AE7D1214628464A
:1052400000F0C4F90028DED170BD70B50446051F1A
:1052500000F0B4F90068002C14BF446870BD002C45
:1052600018BFAC423CBF20466468F8D301680A18F6
:10527000AA4218BF456003D12A680546114401605F
:1052800028684119A1421CBF6C6070BD61686960EB
:1052900021680844286070BD0FB41CB5074B06AAEE
:1052A0007B4469460090059800F039FA0020694671
:1052B00000F048FA1CBC5DF814FB0000A1040000DB
:1052C00070B5044685690068C10601D5302600E046
:1052D0002026C00707D070BDD4E901213046904791
:1052E000206A401C20626D1EF6D570BD70B5044664
:1052F00085690078C00707D170BDD4E9012120205D
:105300009047206A401C20626D1EF6D570BD70B5B6
:105310000C460546012A05D02878800600D5EA69A2
:10532000002302E0012305E05B1C934202D2E05C13
:105330000028F9D1A869E618C01AA861286A18449B
:1053400028622846FFF7BCFF04E0D5E9012114F8E4
:10535000010B9047B442F8D32846FFF7C7FF70BD52
:105360002DE9F0410646002410687529314616A53E
:1053700010D0AFF30080002802DA404213A507E006
:1053800031688A0701D512A502E0490704D511A5A5
:10539000012401E0AFF3008000210A2206F1240776
:1053A00009E0B0FBF2FCB0FBF2F302FB1C00303072
:1053B00078541846491C0028F3D123462A46304623
:1053C000BDE8F04100F04CB9000000002D000000E5
:1053D0002B0000002000000070B504460D46214659
:1053E0001068AFF300802188090502D50F4A7A447E
:1053F00002E00E4A7A440E32002104F1240305E053
:1054000000F00F060009965D5E54491C0028F7D194
:1054100020780023000704D5702D02D009B10223A3
:1054200011322046BDE8704000F01AB953BC0000AC
:105430002DE9F05F894604464FF0000ADFF824B1F9
:10544000FB44C0F820A02046E168884700287DD0B2
:10545000252806D0D4E901219047206A401C20620B
:10546000F1E700255F462046E16888472028064688
:1054700007DB312E05D2B81910F8200C08B105430E
:10548000F1E7A80701D525F00405C4F81CA0002702
:10549000C4F818A02A2E09D0304607F035FF38B3DB
:1054A00004EB8708303EC8F8186019E059F8041B6F
:1054B000204604EB87029161E1688847012F064688
:1054C00018D1E069002820DA25F020051DE0D8F881
:1054D000180000EB800006EB40003038C8F81800D8
:1054E0002046E1688847064607F00EFF0028EED107
:1054F000012F0AD02E2E08D12046E16888477F1C54
:105500000646022F45F02005C4DBA069002803DA17
:10551000404245F00105A061E80701D025F01005E3
:10552000A6B1A6F14100192802D8203645F400653D
:105530004A463146204625604D46FFF711FE60B1D0
:10554000012807D0ED1D25F0070000E007E000F17D
:10555000080978E705F1040975E730467AE7206A1B
:10556000BDE8F09F29BC00004FF0000200B51346D3
:1055700094469646203922BFA0E80C50A0E80C5073
:10558000B1F12001BFF4F7AF090728BFA0E80C5024
:1055900048BF0CC05DF804EB890028BF40F8042B1D
:1055A00008BF704748BF20F8022B11F0804F18BF8A
:1055B00000F8012B704770477047704700487047EC
:1055C00004060020704770477047704738B504469E
:1055D0000A4600206946AFF30080002808BF38BDA6
:1055E00002460099204600F0CDF8012038BD012088
:1055F00000F0E2B8F8B5AFF30080054600200C4695
:10560000102000BF0646A819A0420DD932466946AF
:105610000020AFF30080070008BF00F0CDF800982D
:10562000A04218BF0546C419FFF7C8FF056007462A
:10563000F01D20F007004619284600F00AF8B44291
:1056400008BFF8BDA21B31463868BDE8F84000F03D
:1056500099B800210160C0E901107047102070471F
:105660002DE9F0470D4699469246044600F124087C
:105670000168880604D5E06921F01001216000E08E
:105680000120A84201DD471B00E00027A1697A192B
:1056900002EB0900081AA0612078C00602D4204657
:1056A000FFF70EFE002608E0D4E901211AF80600F3
:1056B0009047206A401C761C20624E45F4DB20781F
:1056C000C0060AD52046FFF7FBFD06E0D4E901211C
:1056D00030209047206A401C2062381EA7F1010745
:1056E000F4DC07E0D4E9012118F805009047206AAE
:1056F000401C2062281EA5F10105F3DC2046FFF7BF
:10570000F5FD2078000602D50220BDE8F0870120D3
:10571000FBE7000001694A1C02610878704700B588
:105720008FB0CDE901310021059105497944CDE9DA
:10573000031011466846FFF77BFE0FB000BD000066
:10574000E5FFFFFF0A6802F8010B0A60704710B519
:10575000436913B1AFF3008001E0FFF7D8FD0120EA
:1057600010BD127800F124010A7000224A70012253
:10577000EDE711684FF0FF32E9E70000004870479D
:10578000FC050020034640688C46002818BF88426C
:105790003CBF03464068F8D318681844884207D0D5
:1057A0000CF1030020F00700001D411A521A0146B7
:1057B000081D0A60FFF749BD10B500F039F8BDE8D3
:1057C000104000F02FB870477546FFF7D7FFAE4680
:1057D00005006946534620F00700854618B020B5FD
:1057E000FFF7F2FCBDE820404FF000064FF0000745
:1057F0004FF000084FF0000B21F00701AC46ACE879
:10580000C009ACE8C009ACE8C009ACE8C0098D46E5
:10581000704710B50446AFF300802046BDE8104045
:10582000FFF7BDBC002801D000F02AB87047000087
:1058300010B5012805D0002103A000F027F80120B1
:1058400010BD09A1F8E7000053494752544D454D9A
:105850003A204F7574206F662068656170206D6511
:105860006D6F7279000000003A2048656170206D0C
:10587000656D6F727920636F727275707465640004
:1058800001491820ABBEFEE72600020070B50546B0
:105890000C460A2000E06D1C00F011F835B12878A4
:1058A0000028F8D102E0641C00F009F814B1207857
:1058B0000028F8D1BDE870400A20AFF3008008B599
:1058C00069468DF800000320ABBE08BD70B50446E4
:1058D00000688168C943C90717D1816821F00101B7
:1058E000816002F0F9FE05460AE000BF02F0F4FE16
:1058F000401B022804D920688068C043C00706D036
:1059000020688068C043C007F0D0002070BDA06A46
:1059100040F01000A062E06A40F00100E062012067
:1059200070BD000070B500F021F80D48017A022921
:1059300002D1C078012811D10A4C0B4D322002F05F
:10594000BFFD8021204602F0BDFE28B90121284676
:1059500002F0B8FE0028F1D000F04AF870BD000057
:10596000B0030020000C01400008014038B50020C1
:1059700001F088FD1A4C4FF47845E07860B1194881
:105980002B464FF6E07200900021084602F07CF8AA
:10599000207A022806D007E013482B464FF6FF7204
:1059A0000090F1E7E07870B11048002300902A469B
:1059B0007021184601F0D2FFE07801280DD00A20AE
:1059C00000F032F838BD022000F02EF840F6B83072
:1059D00002F076FD00F00CF838BD0520F0E700007D
:1059E000B0030020C01001081C120108801001083B
:1059F00008B50B48002300904FF4FC627021184654
:105A000001F0ACFF4FF47A7002F05AFD05480179BD
:105A1000002000F025F8BDE8084005F03BBA000082
:105A2000A8100108B003002070B5054600240FE05F
:105A30000021094804F04AF9642002F041FD0021E8
:105A4000054804F091F9322002F03AFD641CE4B2FA
:105A5000AC42EDD370BD0000A8010020FEE70000BD
:105A60007FB50D46064602AA0121112005F088F9EE
:105A70001024A6B1012E11D107F09AFA80208DF8DA
:105A8000044040EA85108DF80500022301AA642134
:105A90001348009403F00CF807F074FA7FBD07F088
:105AA00087FA92208DF8044040EA85108DF80500B1
:105AB0009DF80800032340F080008DF8060001AA3D
:105AC00064210748009402F0F3FF07F05BFA00201E
:105AD0008DF80C0003AA01210F2005F051F97FBDBC
:105AE000FC00002008B5002101284FF06F034FF0A3
:105AF0009F02009104D05C21002004F0E9FD08BD64
:105B00001821F9E738B50B484FF6FF7400904FF4B1
:105B1000784322467021582001F020FFC82002F06F
:105B2000CFFC054800901F2322467021582001F029
:105B300015FF38BD58120108501201082DE9FE4F1B
:105B4000FB4C03200190E0680125206100262846D7
:105B5000FFF7C8FF002001F095FCF6A04FF4FC67AA
:105B600000901F233A467021002001F0F7FEF7A0B5
:105B700000901F233A4600210C2001F085FFF6A07B
:105B80000090617840F2FF7700233A462078363162
:105B900002F012F8F7A00090617800233A462078CE
:105BA000403102F009F8FAA00090617800233A46EB
:105BB00020784A3102F000F8FD4F0321FA1C322010
:105BC00005F0DEF8E068F86078794FF4616102462C
:105BD0003B794843C3EB031100EB8101F8780144A2
:105BE000B9600090F3A1F748FFF756FBF54F009717
:105BF0002078002348F210426178083001F044FF19
:105C00004FF0000A8DF808A002AA0121102005F02B
:105C1000B7F89DF80820ECA1EA48FFF73DFBC44F18
:105C2000DFF8A083CDF80080797838784FF6DE7BF6
:105C30004FF478435A468830363101F0BDFFDC4CD2
:105C4000F968E068884229D3012E27D13A69914248
:105C500024D9401A3C22B0FBF2F33961B0FBF2F1D7
:105C6000B3FBF2FC02FB110102FB1C3320614FF479
:105C70006162B0FBF2F0E170C2B223716271009117
:105C8000CCA14046FFF708FBCDF800803878002310
:105C90004FF4FC627978083001F0F6FE4FF4804151
:105CA000CB4802F00FFD00283ED1C14905F016FA9D
:105CB000C8A0009000264FF478435A46702128204F
:105CC00001F04CFE0820FFF7AFFEDFF81093322002
:105CD00002F0F6FB4021484602F0F4FC0028F6D022
:105CE000E21C0321322005F04BF8E0780090237984
:105CF0006279B0A1B348FFF7CFFACDF800803878C9
:105D0000002348F210427978083001F0BDFEB4A0BB
:105D100000901F234FF4FC627021282001F01EFE2A
:105D20004FF4967002F0CCFBDFF8B0924021484669
:105D300002F0C8FC60B301221103484602F0C7FC20
:105D40000A2002F0BDFB00224FF48051484602F0C9
:105D5000BEFC322002F0B4FB4021484602F0B2FC07
:105D6000012811D186F00106012E32D09CA00090AE
:105D70001F234FF4FC627021282001F0EFFD8C49B5
:105D80005FF0000005F0AAF94FF4967002F098FB5E
:105D90000821924802F096FC002864D0DFF83C927B
:105DA0004FF4805B01225946484602F090FC0A20DD
:105DB00002F086FB00225946484602F088FC322059
:105DC00002F07EFB0821484602F07CFC01281FD02F
:105DD00045E085A000904FF478435A467021282072
:105DE00001F0BCFD012060700220207060794FF44A
:105DF000616148432179C1EB011100EB8101E07839
:105E00000844A060F9680844E06069490120B9E7E6
:105E1000012E24D100266649304605F05FF9E21CC8
:105E20000321322004F0ACFFE078009023796279FE
:105E300060A16448FFF730FACDF80080387800237D
:105E400048F210427978083001F01EFE64A00090FC
:105E50001F234FF4FC627021282001F07FFD4FF4D6
:105E6000967002F02DFBDFF888B14FF400415846E0
:105E700002F028FC012858D1012E56D0010301223E
:105E8000564802F024FC0A2002F01AFB00224FF4CC
:105E90008051524802F01BFCE21C0321322004F026
:105EA0006FFF4FF4967002F00BFBB946012D04D042
:105EB000022D04D0032D3AD00EE04EA000E050A0F9
:105EC000009099F8011099F8000000234FF47842EF
:105ED0000830183101F0D8FDE0780090237962791C
:105EE00034A13848FFF7D8F93648009099F80000F7
:105EF00000234FF6E07299F80110083001F0C4FD5C
:105F00004FF400473946584602F0DCFB70B1DFF829
:105F1000CC8001221103404602F0D9FB0A2002F096
:105F2000CFFA0022F910404670E027E186E079E0E0
:105F30003000002045534320205374617274205276
:105F4000657365742053657400000000436F756EBF
:105F50007420446F776E0000507265737320536530
:105F60007420746F206368616E67652074696D6565
:105F70002E0000003C2D3E2041646A75737420742D
:105F8000696D652020203C7C3E20536176650000D1
:105F900050726573732046696E7368202F205265B6
:105FA00073657420746F20726573746172742E004F
:105FB0009C030020253032643A253032643A253083
:105FC00032640000BA03002025303258000000007F
:105FD0000010014046696E7368000000000C01402B
:105FE00053746172740000005061757365000000A5
:105FF00000080140202020202020737300000000B2
:106000002020206D6D2020200000000002F05FFBAA
:10601000322002F055FA3946584602F053FB012867
:1060200002D007E06DA04BE76D1C0198EDB28542F0
:1060300000D901254FF4967002F042FA6A4F2021F0
:10604000384602F03FFB20B91021384602F03AFBF7
:10605000B0B34FF4805801224146384602F037FB76
:106060000A2002F02DFA00224146384602F02FFBAA
:10607000322002F025FA2021384602F023FB0128C5
:1060800021D1012D0AD0022D11D0032D7ED16079AE
:10609000401CC0B26071182813D014E0E078401C96
:1060A000C0B2E0703C280ED184F803A00BE0207948
:1060B000401CC0B220713C2805D184F804A002E045
:1060C00013E084F805A01021384602F0FBFA0128FD
:1060D00020D1012D0AD0022D11D0032D7CD1607961
:1060E000401EC0B26071FF2812D013E0E078401E5D
:1060F000C0B2E070FF280DD13B20E0700AE02079AB
:10610000401EC0B22071FF2804D13B20207101E065
:10611000172060710121584602F0D4FA00283FF49C
:10612000C5AE314F4FF4805801224146384602F047
:10613000CEFA0A2002F0C4F900224146384602F0A5
:10614000C6FAE21C0321322006F006FF27A00090C9
:1061500099F8011099F8000000234FF478424C465A
:106160000830183101F090FC23480090207800237B
:1061700048F210426178083001F086FC80211A480C
:1061800002F0A0FA00283FF43DAD00E024E0012237
:10619000154D14032146284602F099FA0A2002F010
:1061A0008FF900222146284602F091FA0120FFF7DC
:1061B00099FC012001F066F90F480A3801790020A6
:1061C000FFF74EFC0A2000F0CFFE03B00021BDE82F
:1061D000F04F092005F0F2BABDE8FE8F6868202074
:1061E0002020202000000000000C01402020202062
:1061F0002020202000000000BA030020014802F007
:1062000087B8000034020020014802F081B8000085
:106210007802002010B50022044B03E010F8014B77
:1062200054401A5D491EF9D2104610BDF6EA000826
:1062300008B500208DF8000000F00AFA8DF8000083
:1062400000F0BAF810B14FF0FF3008BDCC2007F0D5
:106250003DF8442007F03AF840F2EE21684600F09D
:1062600004FA002008BD00007FB5044600200D465A
:106270008DF8000000F0ECF98DF8000000F09CF8BB
:10628000552007F023F80821204606F0E9FFB82042
:1062900007F01CF81421684600F0E7F900F08CF8CC
:1062A00018B14FF0FF3004B070BD552007F00EF864
:1062B0000821204606F0D4FFBE2007F007F800248E
:1062C0000DF1040606F020FF3055641C092CF9DBA3
:1062D000082101A8FFF79EFF9DF80C10884202D00C
:1062E0006FF00200DFE79DF8060028709DF80700B8
:1062F00068709DF80800A8700020D4E7FEB50D4630
:10630000044600F059F810B14FF0FF30FEBD5520A3
:1063100006F0DCFF0821204606F0A2FFBE2006F0B2
:10632000D5FF00244FEA0D0606F0EEFE3055641C42
:10633000092CF9DB08216846FFF76CFF9DF808106F
:10634000884202D06FF00200FEBD9DF801109DF85A
:1063500000009DF8042000EB0120072903D900214B
:10636000C043401C00E0012112F0030206D0012AC4
:106370000BD0022A0ED0032A18D113E000EB8000C4
:1063800040F3DB004FF47A7202E0642250430011C4
:1063900050430BE04FF47A725043001100EB800041
:1063A000400003E042F210725043001111B1286026
:1063B0000020FEBD4042FAE72DE9F041002607F03B
:1063C00003FF1C4C4FF4804500222946204602F072
:1063D0007EF94FF4FA7006F0ADFF012229462046FF
:1063E00002F075F93C2006F0A5FF07F0DBFE06E0A1
:1063F000012006F09FFF761CF6B2C82E18D82F4653
:106400002946204602F05EF90028F1D1002506E079
:10641000012006F08FFF6D1CEDB2F02D08D8394633
:10642000204602F04FF90028F2D00020BDE8F081AC
:10643000FF20FBE7000C0140EC2206F075BEF022C5
:1064400006F072BE38B5054600200C468DF80000F7
:1064500000F0FEF88DF80000FFF7AEFF10B14FF02E
:10646000FF3038BD552006F031FF0821284606F0E0
:10647000F7FE4E2006F02AFF0321204606F0F0FE2C
:10648000FFF79AFF552006F021FF0821284606F065
:10649000E7FE482006F01AFF1421684600F0E5F8F0
:1064A000002038BD2DE9F0411A4D4FF480460128F7
:1064B00002D002282CD116E0002442F210770022EC
:1064C0003146284602F003F9384606F033FF012230
:1064D0003146284602F0FBF8384606F02BFF641CD4
:1064E000E4B2022CEBD3002400223146284602F00D
:1064F000EEF80A2006F00FFF01223146284602F08E
:10650000E6F80A2006F007FF641CE4B2022CEBD385
:10651000BDE8F081000C01402DE9F84301224A4C0E
:10652000D6033146204602F0D2F84FF480580122BB
:106530004146204602F0CBF800277F239F223946B0
:106540003846009704F0C4F801F02AF93F4D402185
:10655000204602F0B7F858B1C82001F0B1FF402141
:10656000204602F0AFF8012802D1082007F0BCFB5A
:106570000821204602F0A6F858B1C82001F0A0FF7B
:106580000821204602F09EF8012802D1082007F0D9
:10659000BFFA3146284602F095F850B1C82001F004
:1065A0008FFF3146284602F08DF8012801D106F010
:1065B00007FF0121284602F085F850B1C82001F0FC
:1065C0007FFF0121284602F07DF8012801D107F064
:1065D000AFF81021204602F075F850B1C82001F044
:1065E0006FFF1021204602F06DF8012801D107F05D
:1065F00061FC2021204602F065F858B14FF49670F6
:1066000001F05EFF2021204602F05CF8012801D154
:1066100004F058FE8021204602F054F8002896D05D
:1066200000217F239F220846009704F051F80022A2
:106630003146204602F04BF841462046BDE8F8437B
:10664000002202F044B80000000C014000080140A4
:1066500010B5FFF7B1FECC2006F038FEB42006F0EE
:1066600035FEBDE8104006F04FBD10B50078FF289C
:1066700006D068B140F2EE20BDE8104006F04BBEF7
:106680000A2006F048FE06F03FFD0028F8D010BDB5
:106690000846F1E7FEB50546FFF78EFE10B14FF054
:1066A000FF30FEBDCC2006F011FEBE2006F00EFE2F
:1066B00000246E4606F028FD3055641C092CF9DBD9
:1066C00008216846FFF7A6FD9DF80810884202D011
:1066D0006FF00200FEBD9DF801009DF80010072834
:1066E00001EB002108D9C94342F21070491C414313
:1066F00009114842286004E042F210704143091138
:1067000029600020FEBD7047F8B5054688780C4624
:1067100026A31F2806D03F2806D05F2806D07F2852
:1067200007D105E021A304E022A302E023A300E0B7
:1067300024A32878012833D0202224A12848FEF75A
:10674000ABFD274E002340F2FF773A461C21184646
:10675000009601F003F92878022823D05FF0200288
:1067600094F900301FA11E48FEF796FD00233A461B
:1067700034211846009601F0F1F82878032813D048
:106780005FF0200294F901301BA11548FEF784FD4B
:1067900000233A464C211846009601F0DFF8F8BD78
:1067A0002A22CAE72A22DBE72A22EBE73962697448
:1067B0007320000031306269747300003131626906
:1067C00074730000313262697473000025632052D3
:1067D00065736F6C7574696F6E3A202573000000E5
:1067E00060030020256320416C61726D2054483A9B
:1067F0002025336427430000256320416C61726DBE
:1068000020544C3A202533642743000070B51449C6
:10681000144D087880F0010008704FF400710C01ED
:10682000012812D00022284601F051FF0122214602
:10683000284601F04CFF0320FFF7F6F821462846D2
:10684000BDE87040002201F042BF0122284601F05D
:106850003EFF01222146284601F039FF0220EBE7E6
:10686000B0030020000C01402DE9FC470746887862
:106870000E4603280FD080280FD081280FD0822801
:106880000FD052A5F07848287ED00CDC00287CD0B0
:1068900024280CD183E050A5F4E752A5F2E754A5D3
:1068A000F0E756A5EEE761287DD082287DD047A489
:1068B000554856A142785C48FEF7EEFCDFF8688147
:1068C00000234FF620594A4619460820CDF800808B
:1068D00001F072F93878012869D020222B4653A1A3
:1068E0005148FEF7D9FC002345464A460A2118467E
:1068F000CDF8008001F032F83878022859D02022F3
:1069000023464DA14848FEF7C7FC002340F2FF7420
:1069100022461E211846009501F020F838780328F9
:1069200049D0202296F9073047A13F48FEF7B4FC32
:106930000023224632211846009501F00FF83878DE
:1069400004283AD05FF0200296F9063043A1364879
:10695000FEF7A2FC0023224646211846009500F0CF
:10696000FDFF01AA0121182004F00AFA9DF8041085
:106970003F48032923D03FA100234FF478420091E0
:1069800041780078463003E00BE006E00BE00CE0D5
:106990004A3101F011F9BDE8FC873AA488E73CA42C
:1069A00086E73EA484E740A482E742A480E72A2247
:1069B00094E72A22A4E72A22B4E72A22C4E740A1C6
:1069C00000234FF4FC620091DAE70000496E766123
:1069D0006C6964202020000044697361626C65204A
:1069E000202000004368617267652031306B000031
:1069F00043686172676520356B20000043686172EF
:106A0000676520326B200000900300204261745FB4
:106A10004932433A202530325868202020303D4406
:106A2000495320313D454E00BA03002025634261A1
:106A3000743A2025730000002563414C6D20547981
:106A400070653A20257300002563416C61726D20EA
:106A500054483A2025336427430000002563416CE5
:106A600061726D20544C3A202533642743000000A6
:106A7000300000204261744368673D20656E6162AA
:106A80006C65200044697361626C65202000000021
:106A900054656D70206C6F772000000054656D7038
:106AA0002068696768000000426174206C6F77207D
:106AB00020000000426174206869676820000000BF
:106AC0004261744368673D2064697361626C65006C
:106AD00038B546F64D34002381221946082000942B
:106AE00001F019F90822512300211046009401F009
:106AF00012F98122512300211046009401F00BF974
:106B00005123812219460820009401F004F928231A
:106B1000802219460920009401F0FDF844225023F8
:106B200001211046009401F0F6F809244FF6FF7594
:106B30002A462921204601F043F9641DE4B2812C44
:106B4000F6D301242A462146452001F039F9641D77
:106B5000E4B2512CF6D338BD2DE9F84FC54C4FF0B7
:106B60000008F0B1C44804F02DF9C34861784078BA
:106B7000884218D06070C148DFF8049322780188F9
:106B800009EB8202518021780A2509EB81004088B7
:106B90003230B0FBF5F0E081207809F5F07B20B1D0
:106BA0006BE084F80080BDE8F88FB9F8020032216C
:106BB0003230B0FBF5F006B206F1320090FBF1F096
:106BC000E68000B2208207F0B1FE0146AD4807F032
:106BD000CBFD0746304607F0A9FE394607F062FDB7
:106BE00007F084FE80B26426B0FBF6F206FB1202C8
:106BF000B2FBF5F3B0FBF5F1B0FBF6F205FB1101CA
:106C00000091A1A1A348FEF747FBDA464FF4784371
:106C10004FF6DE7202210A20CDF800B000F0CCFF62
:106C2000B4F9100007F082FE01469B4807F09CFD76
:106C30000746B4F9060007F079FE394607F0DAFE98
:106C400007F054FE80B2B0FBF6F206FB1202B2FB74
:106C5000F5F3B0FBF5F1B0FBF6F205FB1101009185
:106C600089A18C48FEF718FB1F234FF6DE724721DF
:106C70000A20CDF800A000F09FFFB4F90610B4F987
:106C80000E00081AB4F9101000FB01F2293213B2F9
:106C900001222381012B00DA2281B4F908605023FC
:106CA000502E00DD2381B4F9086040F2FF7AB61E51
:106CB0004E2E78D3012901DD491E2182218A4843C5
:106CC000293000B22081012800DA2281B4F90800BD
:106CD000502800DD23815123812200210820CDF896
:106CE000008000F035FEFFF7F3FEB4F9100007F066
:106CF0001DFE0146634807F037FD0646B4F906005D
:106D000007F014FE314607F0CDFC07F0EFFD80B22E
:106D10006426B0FBF6F206FB1202B2FBF5F3B0FB01
:106D2000F5F1B0FBF6F205FB1101009156A15948AF
:106D3000FEF7B2FA4FF478434FF6DE7202210A20D2
:106D4000CDF800B000F038FFB4F9100007F0EEFD08
:106D50000146514807F008FD0746B4F9060007F060
:106D6000E5FD394607F046FE07F0C0FD80B2B0FBF6
:106D7000F6F206FB1202B2FBF5F3B0FBF5F1B0FB45
:106D8000F6F205FB110100913FA14248FEF784FA9B
:106D90001F234FF6DE7247210A20CDF800B000F025
:106DA0000BFF002625E027E0EEB309EB860BE18818
:106DB000BBF8020006F109073230B0FBF5F0081A03
:106DC000218ACDF800A04843293083B2BAB2A18904
:106DD000608900F0A0FF6781BBF80200E1883230D3
:106DE000B0FBF5F0081A218A48432930761CA081AF
:106DF000B6B220788642D7D3207870B3CDF800A001
:106E00002089227883B2A1896089093200F083FF4A
:106E10002078093060812089A0812078401C207072
:106E20002078772800E00FE07FF6BDAE84F8008080
:106E30005123812200210820CDF8008000F088FD38
:106E4000BDE8F84FFFF744BE0927524629213846CE
:106E500000F0B6FF67812920C8E7FFE72078524697
:106E60002921093000F0ACFF207809306081292009
:106E7000D2E70000B8000020270000201C000020FE
:106E8000EA030020000020422531642531642E25CC
:106E900031640000CA050020000048422DE9FC478B
:106EA00004464AF655560225801C82B2CDE90056AA
:106EB000A01E80B27623012100F0F6FF33460622A1
:106EC0007921204600F089FF4FF478484346052297
:106ED0007921204600F081FF0020CDE90050661C9A
:106EE000671EB2B2B8B26723022100F0DDFFCDE920
:106EF0000058B2B2B8B27A23662100F0D5FFA4F1EF
:106F00000408271D4BF2041A4FF0140904E0662D03
:106F100002D34FF4FC6600E05646B5FBF9F109FBDD
:106F2000115002281FFA88F2009613D0601F2B46DA
:106F300080B2194600F0EFFEBAB2601D00962B46F3
:106F400080B2194600F0E7FE0A35EDB2752DDED3AA
:106F5000BDE8FC87E01F2B4680B2194600F0DBFE3F
:106F6000BAB2E01D0096EAE72DE9F043BC4D804639
:106F700085B040F2FF7028800020FEF7B3FDAC1F03
:106F80004FF478494FF6FF77B8F1050F7ED008DC53
:106F9000B44EB8F1050F10D2DFE808F014B2DDF3FB
:106FA000F100B8F10A0F72D0B8F1290F70D0B8F122
:106FB0002A0F6ED0B8F1330F6CD0ABA000234A4635
:106FC0000090BEE04FF000087F239F226F214046D3
:106FD000CDF8008003F07CFBA54800901F233A46C3
:106FE0007621002000F0E8FDA2A0009061782A88B8
:106FF000002320784A3100F0DFFD04AA012110208F
:1070000003F0BEFE9DF81050122D06D0522D04D074
:10701000002D58D0402D56D037E0F078012801D10E
:1070200086F8038003AA04212C2003F0A9FE307AFD
:10703000022808D00E2839D036280DD08AA0002387
:107040004A4600901CE08748C5F3801291A10A309F
:10705000FEF722F996A010E09DF80E009DF80C2096
:107060009DF80D108DE807007E489DF80F303279AD
:1070700090A10A30FEF710F998A04B463A460090CE
:1070800061782078403100F097FD04E0A1E022E033
:10709000B3E0C6E0CFE0734800230A3000902078C8
:1070A00061780A304AF6E67240314DE09DF80C00F6
:1070B00000906C489DF80D30327989A10A30FEF7B6
:1070C000EBF88FA0D9E7674832798EA10A30FEF736
:1070D000E3F893A0D1E766481F23213000904FF4D6
:1070E000FC627021002000F039FC8EA000906178D5
:1070F0002A8800232078403100F05EFD8FA01DE03B
:107100005B481F23363000903A467021002000F083
:1071100025FCB07801281CD08CA000904B463A4644
:107120007021282000F01AFC8AA0009061782A883B
:1071300000232078403100F03FFD8DA000902A8888
:107140000023617820784A3100F036FD05B0BDE8B3
:10715000F0838FA0E1E746481F234B3000903A466A
:107160007021002000F0FAFB8BA0009061782A8843
:1071700000232078403100F01FFD8CA0DEE714E0F2
:10718000FFE73B481F23603000903A467021002003
:1071900000F0E4FB8AA0009061782A880023207820
:1071A000403100F009FD8CA0C8E731481F2375303D
:1071B00000903A467021002000F0D0FB8BA0009098
:1071C00061782A8800232078403100F0F5FC8DA0FA
:1071D000B4E727481F23B43000903A4670210020BE
:1071E00000F0BCFB81A0009061782A880023207801
:1071F000403100F0E1FC88A0A0E71D481F238A3041
:1072000000903A467021002000F0A8FB86A0009074
:1072100061782A8800232078403100F0CDFC87A0D7
:107220008CE713481F239F3000903A4670210020BE
:1072300000F094FB8AE70E481F23C93000903A46BD
:107240007021002000F08AFB82A0009061782A88DB
:1072500000232078403100F0AFFC84A06EE70000EE
:1072600036000020B0030020556E6B6E6F776E0005
:107270005B0F01083C7C3E204C4344206F6E2F6F17
:10728000666620203C2D2D20416C61726D206D6F53
:1072900064650000494D3D256420686F75726C7906
:1072A00020616C61726D206174206D6D2030300042
:1072B00052000000494D3D25642054696D652061F0
:1072C0006C61726D20253032642F253032642025A8
:1072D0003032643A25303264000000005300000070
:1072E000494D3D2564207765656B6C7920616C6143
:1072F000726D20617420253032643A25303264008A
:1073000057000000494D3D2564204F746865722088
:10731000616C61726D20616374697661746564008B
:107320004F0000004632203E20436F756E7420648B
:107330006F776E2074696D65720000004633203EE1
:107340002053746F702077617463680032345F4833
:1073500052000000414D5F504D202F203234486FC5
:107360007572732073656C656374696F6E000000DD
:10737000536574203E2052544320436F6E6620268E
:1073800020526567697374657220696E666F0000CC
:10739000414D5F504D0000004872414C203E204856
:1073A0006F75726C7920616C61726D005365742029
:1073B0006F6E652074696D6520616C61726D00008F
:1073C00057736574203E2053656C65637420776540
:1073D000656B646179000000536574207765656BA7
:1073E00064617920616C61726D0000004D6F72659F
:1073F000203E204F746865722066756E6374696FF5
:107400006E0000005365742063757272656E74209F
:1074100074696D6500000000467265712067656ED5
:10742000657261746F720000494E464F203E2052D3
:1074300054432064657461696C7300005453203EAA
:107440002054656D706572617475726520736F7517
:1074500072636500526573657276652066756E634A
:1074600074696F6E2063616C6C00000046322F46B9
:10747000332F4634203E204E6F7420646566696E5B
:107480006564000008B5012807D0002017239F225B
:107490000146009003F01CF908BD0548002100904A
:1074A0001F234FF6A062084600F0EEFA08BD000068
:1074B0009810010872B6FEE72DE9FE4F00208DF806
:1074C000040001AA0121352003F05AFC9DF80400B4
:1074D0000126401CC4B20F2002900020FFF7D2FF0B
:1074E0000120FEF7FFFA7CA040F251494FF6E07808
:1074F000002100904B464246084600F0C5FADFF8EE
:10750000E8A14B460AEB8400424650F8040C009078
:107510000021462000F0B8FA74A0AAF130050090CE
:107520006978002340F2FF773A461846091D00F0BB
:1075300015FA74A00090697800233A461846143171
:1075400000F00CFA75A00090697800233A461846BE
:10755000243100F003FA77A00090697800234FF6F9
:10756000FF773A461846403100F026FB79A000909C
:10757000697800233A4618464A3100F01DFB7CA08A
:1075800000904B4642467021002000F0E7F9DFF8FA
:10759000F8B17E4D2021284601F094F820B9102141
:1075A000284601F08FF8E0B3012217033946284638
:1075B00001F08DF80A2000F083FF002239462846AA
:1075C00001F085F82021284601F07CF8012805D13A
:1075D000641C0298E4B2844200D901241021284698
:1075E00001F070F8012804D1641E14F0FF0400D1EA
:1075F0000F2467A000904F464B464246002146208C
:1076000000F042FA0AEB84003B4650F8040C00906C
:1076100042460021462000F037FA4FF4967000F001
:107620004FFF01215F46584601F04CF870B301212D
:10763000384601F047F8012828D196F001060BD012
:10764000002103F089FD4EA000904B464246702178
:10765000802000F083F915E02146012003F07CFD35
:107660004DA000904FF478434FF6FF7270218020B8
:1076700000F074F9601E8DF8040001AA0121352084
:1076800005F06AFC4FF4967000F01AFF802128463E
:1076900001F018F800283FF47DAF641E8DF8044017
:1076A00001AA0121352005F057FC0021084603F00E
:1076B00053FD0120FFF7E6FE0120FEF713FA052037
:1076C000FFF752FC0021092004F078F84FF4FA701B
:1076D00000F0F6FEBDE8FE8F467265713A2020206C
:1076E0002020202020000000600000205254432071
:1076F0006672657175656E6379206F7574707574E7
:107700000000000076696120494E54206F75742096
:107710002870696E20372920000000003D3D3E2082
:1077200045585420706F72742070696E2031342077
:10773000000000003C2D3E2053656C6563742046BC
:107740007265712020203C7C3E204F7574707574EA
:10775000000000005072657373204553432072652A
:107760007475726E20746F2063616C6C65720000BA
:10777000457363202020202020202020202020204E
:10778000202020200000000000080140000C0140E3
:1077900020202020202000002A4F55540000000007
:1077A00038B500207F239F220146009002F090FF11
:1077B0002AA0002346F2BD440090224619461846EE
:1077C00000F0CCF82BA0002300902246142118468C
:1077D00000F0F2F92FA000234AF6E6740090212170
:1077E0002246184600F0E8F92DA0002300902C2135
:1077F0002246184600F0E0F92DA000230090372122
:107800002246184600F0D8F92EA00023009042210D
:107810002246184600F0D0F931A0002300904D21F7
:107820002246184600F0C8F935A0002300905821E0
:107830002246184600F0C0F938A0002300906321CA
:107840002246184600F0B8F93CA0009000234FF6FD
:10785000E0727021102000F081F838BD44533138B7
:107860004232302066756E6374696F6E2073657482
:107870000000000064657369676E656420666F725E
:107880002048616D437562652062792056523258F6
:10789000485100004631203D204553430000000080
:1078A0004632203D2053656172636820524F4D007F
:1078B0004633203D2053656172636820414C41523C
:1078C0004D0000004634203D2041646A75737420E9
:1078D000636F6E66696775726174696F6E00000030
:1078E0003C2D2D20203D2053686F772074656D70EE
:1078F00065726174757265206C69737400000000B4
:107900002D2D3E20203D20546865726D6F6D65748D
:107910006572202620437572766500003C7C3E200F
:10792000203D2044656661756C7420524F4D20697E
:107930006E666F726D6174696F6E00004631202053
:1079400020463220202046332020204634000000EC
:1079500038B5049C009402F0BBFE38BD2DE9FF4F02
:1079600081B09B460198DDF83880009080E0802847
:107970003CD20D2804D0202809D9203880B207E055
:10798000009801900298103080B202902BE0002005
:10799000824602980F3083B20198C01D82B2DDE9A1
:1079A000010102F07BFF0025DFF8D490802600243F
:1079B00005EB0A1726FA04F119F8070008420398A4
:1079C00003D15946584502D0084602F059FE641CBE
:1079D000E4B2082CEED36D1CEDB2102DE7D3019864
:1079E000083080B2019008F1010841E05FF0000624
:1079F000244806EB061198F8002010F81130934245
:107A00002CD100EB410A98F801009AF8011081424C
:107A100024D102980F3083B201980F3082B2DDE991
:107A2000010102F03BFF00254FF0800900240AEB22
:107A3000050729FA04F0B978014201D0039803E060
:107A400003995846594501D002F01AFE641CE4B26D
:107A5000082CEED36D1CEDB2202DE7D3761CB6B208
:107A6000022EC5D3019808F10208103080B20190AF
:107A700098F8000000287FF47AAF05B0BDE8F08FD9
:107A800076EF0008390F01082DE9FF4F81B09B46C2
:107A90000198DDF83880009081E080283FD20D28E1
:107AA00004D0202809D9203884B207E0009801903A
:107AB0000298183080B202902EE00024029817300D
:107AC00083B201980F3082B2DDE9010102F0E6FED7
:107AD0000025DFF8DC9004EB440A8026002405EB47
:107AE0000A1700BF19F8070026FA04F1084201D06E
:107AF000039803E003995846594501D002F0C0FDB0
:107B0000641CE4B2082CEDD36D1CEDB2302DE5D32E
:107B100001980C3080B2019008F101083FE0002686
:107B2000244806EB061198F8002010F81130934213
:107B30002BD100EB410A98F801009AF8011081421C
:107B400023D102980F3083B201980F3082B2DDE961
:107B5000010102F0A3FE00254FF0800900240AEB8A
:107B6000050729FA04F0B9780142039803D1594670
:107B7000584502D0084602F083FD641CE4B2082C8C
:107B8000EFD36D1CEDB2202DE8D3761CB6B2022ED9
:107B9000C6D3019808F10208103080B2019098F81D
:107BA000000000287FF479AF05B0BDE8F08F000039
:107BB00067F50008390F01082DE9F8431F46904684
:107BC0000D460446089E15E07F2816D8211DA029E1
:107BD00002D900240835ADB2E91D812900D900255C
:107BE00000903B4642462946204600F009F8641DB5
:107BF000A4B2761C30780028E6D1BDE8F8830000F6
:107C00002DE9F05F93460A9A9A46203A5F2A25D2D8
:107C100012064FEA5259CA1D93B2021D92B202F0E7
:107C20003DFE0025DFF838808026002409EB05079B
:107C300026FA04F118F80700084201D0584603E07C
:107C40005146D34502D0084602F01AFD641CE4B246
:107C5000052CEDD36D1CEDB2082DE6D3BDE8F09FE9
:107C60007DEC00082DE9FF4F81B08A4683461D490F
:107C70000E98002601EBC0104FF08009009000988C
:107C8000002500EB860800BF18F805705FF00004BF
:107C900029FA04F0384208D00AEB060081B20BEB57
:107CA000C500204480B2039A0BE0DDE9030188425D
:107CB00009D00AEB060081B20BEBC500204480B26C
:107CC000049A00F07DF8641CE4B2082CE0D36D1C2B
:107CD000EDB2042DD8D3761CF6B2202ECFD305B04A
:107CE000BDE8F08F380701082DE9F8431E46174616
:107CF00088460446089D09E0009033463A464146CE
:107D00002046FFF7AFFF1A34A4B26D1C2878102864
:107D1000F2D1BDE8F8832DE9F84F1C4615460E4612
:107D2000804602F0E8FDB5EB0805A4EB06044FF031
:107D3000FF3002D44FF0010B01E083466D42002C6E
:107D400002DB4FF0010901E08146644268004FEA1E
:107D5000440A0090A54219DDAAEB0504002711E0B2
:107D6000314640460A9A00F02BF8002C04DB0098BC
:107D7000241A06EB090086B208EB0B0054441FFAE4
:107D800080F87F1CAF42EBDDBDE8F88F0098051B43
:107D9000002712E0314640460A9A00F011F8002D03
:107DA00005DB08EB0B00A5EB0A051FFA80F800982D
:107DB0007F1C054406EB090086B2A742EADDE3E733
:107DC00010B514464A1C93B2421C92B202F066FDF2
:107DD0002046BDE8104002F053BC2DE9FC5F82460E
:107DE000894640F2C32050434FF47A71B0FBF1F75B
:107DF00002FB02F000EB5200CDE900301446AAEB82
:107E0000020000EB44011E468AB24B4680B219467E
:107E10007F1CFFF780FF012542E005FB05F004FB16
:107E200004010198814220D9BC421DD9AAEB05006A
:107E300000EB4501A1F1010809EB04018BB200F14F
:107E4000010B1FFA88F289B21FFA8BF00096FFF738
:107E500062FFA9EB040083B281B21FFA88F21FFA15
:107E60008BF00096FFF757FF641EAAEB040809EB9E
:107E7000050008EB440B83B281B21FFA8BF21FFAA4
:107E800088F00096FFF747FFA9EB050083B281B2A7
:107E90001FFA8BF21FFA88F00096FFF73CFF6D1C6B
:107EA000BD42BAD9BDE8FC9F2DE9FE4F80460C9C2F
:107EB000994617468A46424502D247461FFA82F83B
:107EC0001846D14502D2D1461FFA80FA002C75D04F
:107ED0000320A0EB44000FFA80FB0D980090381BA4
:107EE00082B208EB0400002526B280B24B46514610
:107EF000FFF72EFD60E0002E24DD0D98009006EBCC
:107F00000900001B83B202907819A0EB040CAAEBC5
:107F10000600204481B201901FFA8CF21FFA8CF007
:107F2000FFF7F9FE0D980090029883B2A8EB0500C8
:107F300000EB040C01981FFA8CF281B21FFA8CF04E
:107F4000FFF7E9FE002D24DD0D98009005EB0900F8
:107F5000001B83B20290A8EB060000EB040CAAEB16
:107F60000500204481B201901FFA8CF21FFA8CF0B8
:107F7000FFF7D1FE0D980090029883B2B819A0EBDC
:107F8000040C01981FFA8CF281B21FFA8CF0FFF7F3
:107F9000C2FEBBF1000F05DA0BEB8500801D0FFA66
:107FA00080FB07E0A91B0BEB81000A30761E0FFA5D
:107FB00080FB36B26D1C2DB2B5429CDDBDE8FE8F54
:107FC000F8B50024009490F824202546012A12D008
:107FD000012280F824204A681F23072A0DD2066850
:107FE000776B521E02EB820293409F430B689340D3
:107FF0001F43776319E00220F8BD06680D2A0AD2F4
:10800000376BD21F02EB820293409F430B68934071
:108010001F43376309E0F76A0D3A02EB820293408F
:108020009F430B6893401F43F7620A680723066863
:108030000A2A0AD3F7680A3A02EB420293409F43A6
:108040008B6893401F43F76008E0376902EB4202F8
:1080500093409F438B6893401F4337610A68102AFF
:1080600001D0112A20D1124B02689A4217D193688D
:108070001B0219D4936843F4000393600968102924
:1080800012D10C490C4A0968B1FBF2F101EB8101F4
:10809000490000E0491E00910029FBD104E0816AFB
:1080A00041F020018162012480F824502046F8BD6F
:1080B000002401401800002040420F002DE9F0414B
:1080C0004FF0000704003D467ED0A06A002628B984
:1080D000E66284F82460204600F07EF82046FDF732
:1080E000F5FBA16AC90600D420B1A06A40F01000D7
:1080F000A06269E0A16A21F4885141F00201A16205
:108100006268E169237B0A4347EA43010A43A168A5
:108110004FF48077B94209D0012907D05FF0000100
:1081200094F814C0BCF1010F02D00AE03946F7E719
:10813000F3B1A36A43F02003A362E36A43F00103AF
:10814000E3622368D3F804C02CF4694C4CEA010CB8
:10815000C3F804C021688B68DFF870C003EA0C0321
:1081600013438B60A168B9420BD0012909D00CE000
:10817000DFF85CC0A3690CEB43330B4343F40061AD
:10818000DFE7218A0D05A5F580152168CB6A23F468
:1081900070032B43CB62216889680E4B19409142D2
:1081A00008D1E662A16A21F0020141F00101A16259
:1081B000BDE8F081A06A20F0020040F01000A0624B
:1081C000E06A40F00100E0620120F1E7FDF7E1FF25
:1081D00000E0FFFFFE0E1FFF00B585B000210091FB
:1081E00001910291039100680E49884218D10E480E
:1081F000816941F400718161816901F40071049128
:10820000816941F0040181618069694600F00400E0
:1082100004901020009003200190044800F062F9BF
:1082200005B000BD002401400010024000080140DC
:1082300010B590F821100022022905D00421816395
:1082400080F82020012010BD01680B6823F00E0388
:108250000B6001680B6823F001030B6090F840305D
:10826000C46B012101FA03F3636080F8211080F8E8
:108270002020104610BD000010B590F821100024F9
:10828000022903D00421816301243DE001680A68CA
:1082900022F00E020A6001680A6822F001020A60F8
:1082A0001A4A0168914201D1012121E0174A143292
:1082B000914201D110211BE0144A2832914201D190
:1082C000891515E0114A3C32914201D189140FE021
:1082D0000E4A5032914202D14FF4803108E00B4AED
:1082E0006432914202D14FF4801101E04FF080716D
:1082F000064A083A5160012180F82110002180F8D7
:108300002010416B01B18847204610BD0800024093
:108310002DE9F05FC16B0C6801680B68D0F840C0B4
:10832000042202FA0CF2494DDFF824A1494E4A4FCB
:10833000DFF828B1DFF828E122422CD05A072AD5ED
:108340000A68920603D40A6822F004020A600168EF
:10835000A94201D1042219E0514501D1402215E082
:10836000B14202D14FF4806210E0B94202D14FF421
:1083700080420BE0594502D14FF4802206E071455E
:1083800002D14FF4800201E04FF080622F4908399A
:108390004A60C16A3BE04FF0020808FA0CF818EA9C
:1083A000040F4FF000094FF0010235D05FEA8378E7
:1083B00032D50B689B0605D40B6823F00A030B60CB
:1083C00080F821200168A94201D1022219E051451B
:1083D00001D1202215E0B14202D14FF4007210E029
:1083E000B94202D14FF400520BE0594502D14FF48B
:1083F000003206E0714502D14FF4001201E04FF067
:108400000072124908394A6080F82090816A002978
:108410001AD0BDE8F05F0847082505FA0CF525429B
:1084200012D01B0710D50B6823F00E030B6090F8D9
:108430004010C36B02FA01F15960826380F8212079
:1084400080F82090016BE2E7BDE8F09F0800024051
:108450001C0002403000024044000240580002402C
:108460006C00024030B528B308C8134914221944DF
:10847000B1FBF2F18900C1631049816302214177A8
:108480001A6843F6F0718A43D0E900142143D0E919
:1084900002452C43214304692143446921438469F3
:1084A0002143114319600021416301224277017782
:1084B000084630BD012030BDF8FFFDBF000002407E
:1084C00070B5044600F008F90546601C02D0044867
:1084D0000078044400F000F9401BA042FAD370BDBC
:1084E0000C0000202DE9F84FDFF8B891002409F1C5
:1084F000040A0AF1040B23460F270BF1040EC9E00E
:108500000125A5402A40AA427DD1674ED1F804C07A
:10851000ACEB0608B44532D014DCBCF1030F3AD002
:1085200009DCBCF1000F2AD0BCF1010F1CD0BCF15A
:10853000020F31D11DE0BCF1110F17D0BCF1120FA9
:108540002AD119E0B8F5881F19D006DCB8F5803FAC
:1085500015D0B8F5801F1FD111E0B8F5001F0ED05F
:10856000B8F5041F18D10AE0CB6815E0CB681B1DD5
:1085700012E0CB6808330FE0CB680C330CE08B685B
:108580002BB1012B4FF0080303D0456104E0042315
:1085900002E0056100E00023FF2A01D8064601E061
:1085A00000F104064FEA840501D9A5F12005D6F8AB
:1085B000008007FA05FC28EA0C0803FA05F548EAEA
:1085C0000508C6F800804D68ED0062D5374DAE69EC
:1085D00046F00106AE61AD6924F0030605F0010521
:1085E0000095334D06EB050CDCF80850A607360F56
:1085F00007FA06F825EA0805DFF8B880404503D1F8
:108600004FF0000817E044E0DFF8AC80404502D1AD
:108610004FF001080FE0DFF8A480404502D14FF091
:10862000020808E0DFF89880404502D14FF00308C7
:1086300001E04FF0040808FA06F848EA0508CCF80B
:1086400008804D68D9F80060ED034D4601D516430A
:1086500000E096432E604D68DAF80060AD035546A1
:1086600001D5164300E096432E604D68DBF80060AC
:10867000ED025D4601D5164300E096432E604D683D
:10868000DEF80060AD02754601D5164300E0964362
:108690002E60641C0D682A46E5407FF431AFBDE8CA
:1086A000F88F00000004014000001110001002408B
:1086B0000000014000080140000C01400010014092
:1086C000001401408068084000D0012070470AB1C2
:1086D000016170470904FBE70148806870470000AA
:1086E0000C00002070B5040025D094F83D00002552
:1086F00020B984F83C50204600F030FC242084F857
:108700003D002068016821F00101016020680168D6
:1087100041F4004101602068016821F400410160DA
:1087200000F00EFE4D4A6168914201D84C4900E0CC
:108730004C49884201D2012070BD4B492368B0FBEF
:10874000F1F15E6826F03F060E435E606368934277
:1087500006D94FF4967359434FF47A73B1FBF3F192
:108760002368491C1E6A26F03F063143196261687E
:10877000914210D84900401EB0FBF1F2521CC2F3E6
:108780000B02042A01D2042022E0B0FBF1F0401CCD
:10879000C0F30B001CE0A268F2B301EBC10303EBD2
:1087A0000116431EB3FBF6F35B1C43F480431B0529
:1087B00049D092B301EBC10202EB0111401EB0FBA4
:1087C000F1F0401CC0F30B0040F4804040F4004046
:1087D0002168CA694CF6FF739A431043C861D4E913
:1087E000071001432068026822F0C00211430160B3
:1087F000D4E9030101432068826848F2FF339A43B9
:1088000011438160D4E9050108432168CA6822F058
:10881000FF021043C86001E00EE016E02068016826
:1088200041F0010101602564202084F83D002563AA
:1088300084F83E50002070BD01EB4106431EB3FB9F
:10884000F6F35B1CB3E70120C2E701EB4101401ED8
:10885000B0FBF1F0401CC0F30B00B7E7A0860100AD
:1088600080841E0000093D0040420F002DE9F84FB2
:108870000025DDF82890984617468A46044600955C
:10888000FFF72AFF064694F83D0020287AD11923E5
:10889000012283492046009601F01AFE0028F5D1F6
:1088A00094F83C0001286DD0012084F83C00206839
:1088B0000168C90703D1016841F001010160206826
:1088C000016821F400610160222084F83D0010203D
:1088D00084F83E0025646762A4F82A80608D2085B4
:1088E0007048E06233464A465146204601F034FC67
:1088F00000287DD1208DDFF8B081202768B10128C4
:1089000014D00228206801681ED041F48061016003
:108910002068416980690090B5E0206841698169FB
:108920000091016841F400710160ACE020680168C9
:1089300021F48061016072B620684169816900910B
:10894000016841F400710AE041F40061016072B60F
:108950002068416981690091016821F480610160AA
:1089600062B690E0032868D801280CD002284B4654
:108970004FF000024146204600960FD001F0A8FDBE
:10898000B0BB10E08AE032464946204601F01FFEA7
:1089900070BB20680069616A08706BE001F098FDA7
:1089A00030BB72B634E02068016821F48061016058
:1089B00072B620680069616A0870606A401C606273
:1089C000208D401E2085608D401E6085374846F210
:1089D000A8110068B0FBF1F0C0EBC00000EB800014
:1089E0000090401E009008D020684069C04300E01D
:1089F00029E040070CD50098F3E744F8305F67732F
:108A0000A573206940F02000206162B625731AE04A
:108A10002068016841F40071016020680069616AA2
:108A20000870606A401C6062218D491E2185618D3D
:108A3000491E618562B621681AE0324649462046E1
:108A400001F0C5FD10B10120BDE8F88F2068006974
:108A5000616A0870606A401C6062218D491E218530
:108A6000618D491E618521684A69D24352070AD443
:108A700009690170606A401C6062208D401E20857B
:108A8000608D401E6085208D00287FF46BAF84F8D8
:108A90003D7084F83E5084F83C50D5E70220D3E77F
:108AA000020010000000FFFF040001001800002079
:108AB0002DE9F84F1F4690468A460446DDF8289077
:108AC000FFF70AFE054694F83D0020287FD11923C0
:108AD000012240492046009501F0FAFC002876D199
:108AE00094F83C00012872D0012084F83C002068F2
:108AF0000168C90703D1016841F0010101602068E4
:108B0000016821F400610160212084F83D001020FB
:108B100084F83E0000262664C4F824806785608DB2
:108B200020852D48E0622B464A465146204601F0FA
:108B300089FB90B9206841698069009036E02A4637
:108B40004946204601F076FD50B1206C042804D13E
:108B50002068016841F4007101600120BDE8F88FD0
:108B6000606A216800780861606A401C6062618DFB
:108B7000491E6185218D491E89B22185226853696C
:108B8000DB435B070BD451B100781061606A401C75
:108B90006062608D401E6085208D401E20852A46C3
:108BA0004946204601F06EFC0028CED1208D0028D9
:108BB000C5D154F83D0B016841F4007101602020DB
:108BC00004F81E09E67766770020C7E7FFE7022072
:108BD000C4E70000020010000000FFFF2DE9FF4F76
:108BE00083B00025DDE910799A4693460446DDF806
:108BF00048800095FFF770FD064694F83D00202858
:108C00007CD11923012285492046009601F060FCA1
:108C10000028F5D194F83C0001286FD0012084F899
:108C20003C0020680168C90703D1016841F00101D7
:108C300001602068016821F400610160222084F84D
:108C40003D00402084F83E0025646762A4F82A9025
:108C5000608D20857248E062CDE9008653465A4611
:108C60002046049901F03CFB00287DD1208DDFF8DF
:108C7000B491202768B1012814D002282068016827
:108C80001ED041F4806101602068416980690090D4
:108C9000B6E02068416981690091016841F4007182
:108CA0000160ADE02068016821F48061016072B666
:108CB0002068416981690091016841F400710AE00E
:108CC00041F40061016072B62068416981690091D8
:108CD000016821F48061016062B691E0032868D8E0
:108CE00001280CD0022843464FF000024946204696
:108CF00000960FD001F0ECFBB0BB10E08BE03246E9
:108D00004146204601F063FC70BB20680069616A3F
:108D100008706CE001F0DCFB30BB72B634E0206818
:108D2000016821F48061016072B620680069616A9F
:108D30000870606A401C6062208D401E2085608D36
:108D4000401E6085384846F2A8110068B0FBF1F07B
:108D5000C0EBC00000EB80000090401E009008D0E7
:108D600020684069C04300E029E040070CD5009826
:108D7000F3E744F8305F6773A573206940F0200083
:108D8000206162B625731AE02068016841F4007121
:108D9000016020680069616A0870606A401C606256
:108DA000218D491E2185618D491E618562B621682C
:108DB0001BE032464146204601F009FC18B1012073
:108DC00007B0BDE8F08F20680069616A0870606ACA
:108DD000401C6062218D491E2185618D491E61857F
:108DE00021684A69D24352070AD409690170606A4E
:108DF000401C6062208D401E2085608D401E608575
:108E0000208D00287FF46AAF84F83D7084F83E50CE
:108E100084F83C50D4E70220D2E7000002001000A2
:108E20000000FFFF04000100180000202DE9FF4FA3
:108E300083B09A46DDE9119793460446DDF84080F9
:108E4000FFF74AFC054694F83D0020287FD11923FE
:108E5000012240492046009501F03AFB002876D1D6
:108E600094F83C00012872D0012084F83C0020686E
:108E70000168C90703D1016841F001010160206860
:108E8000016821F400610160212084F83D00402048
:108E900084F83E0000262664C4F82480A4F82A90B2
:108EA000608D20852C48E062CDE9007553465A4616
:108EB0002046049901F092FA70B930E02A4639460A
:108EC000204601F0B7FB58B1206C042804D120687B
:108ED000016841F400710160012007B0BDE8F08F26
:108EE000606A216800780861606A401C6062218DB8
:108EF000491E89B22185628D521E6285226853699E
:108F0000DB435B070BD469B100781061606A401CD9
:108F10006062208D401E2085608D401E6085208D02
:108F20000028CBD12A463946204601F0ABFA00286A
:108F3000CAD154F83D0B016841F400710160202052
:108F400004F81E09E67766770020C6E7FFE70220EF
:108F5000C3E70000020010000000FFFF10B586B05C
:108F6000002100910191029103910068104988420B
:108F70001BD1104CA06940F00800A061A0696946AF
:108F800000F0080004904FF440600090122001901F
:108F9000032003900848FFF7A5FAE06940F4800039
:108FA000E061E06900F48000049006B010BD0000AC
:108FB0000058004000100240000C01400248816847
:108FC00002781144816070470C000020074810B5FA
:108FD000016841F010010160032000F075F80020E5
:108FE00000F006F800F024F8002010BD0020024038
:108FF00070B50D4D04464FF47A712878B1FBF0F04E
:109000000A490968B1FBF0F000F0C5FC48B9102C22
:1090100007D200222146501E00F036F800206C6076
:1090200070BD012070BD00000C0000201800002061
:109030000C4808B5816941F001018161816901F045
:1090400001010091C16941F08051C161C06900F026
:10905000805000900448416821F0E06141F00071C7
:10906000416008BD0010024000000140002809DBFB
:1090700000F01F02012191404009800000F1E02032
:10908000C0F8001170470000F0B40E4B1B680C468E
:10909000C3F30223C3F10705042D00D90425191DCC
:1090A000072901D2002300E0DB1E012606FA05F1A4
:1090B000491E214099409E40761E16403143F0BC27
:1090C00004F012B90CED00E0064900F00702086850
:1090D0004FF6FF03184040EA0220034A104308609D
:1090E000704700000CED00E00000FA0590FAA0F0D7
:1090F000044AB0FA80F002EB80000121C0F8801031
:109100007047000000000E420548016841F002016E
:1091100001600448016841F00401016030BF7047FC
:109120000070004010ED00E02DE9F843054600789E
:10913000354CC00754D0E0690026C00008D4E0696F
:1091400040F08050E061E069012600F0805000901E
:109150002E480168C90512D40168804641F4807127
:109160000160FFF7B9FA074605E000BFFFF7B4FA60
:10917000C01B642823D8D8F80000C005F6D5206AA3
:1091800010F4407021D0A98801F4407181421CD0B4
:10919000206A1F49012220F440700A6000220A6000
:1091A0002062C00711D0FFF797FA074641F28838CE
:1091B00008E000BFFFF790FAC11B414502D9032028
:1091C000BDE8F883206A8007F4D5206A696820F436
:1091D0004070084320621EB1E06920F08050E061D9
:1091E0002878800705D56068A96820F440400843C6
:1091F00060602878C00605D56068E96820F48000C2
:10920000084360600020DBE700100240007000406F
:10921000400442422DE9F0470F46050061D0434E1D
:10922000306800F00700B84209D2306820F007002B
:1092300038433060306800F00700B84251D12868E8
:109240003B4C810712D5400703D5606840F4E060CD
:1092500060602878000703D5606840F46050606063
:109260006068A96820F0F000084360602878C007B3
:1092700028D06868012810D02168022810D08907FA
:1092800000292EDA616821F0030101436160FFF7D4
:1092900023FA804641F288390DE021688903EFE71F
:1092A0008901EDE7FFF718FAA0EB0801494502D95B
:1092B0000320BDE8F0876068696800F00C00B0EB3F
:1092C000810FEFD1306800F00700B8420BD9306849
:1092D00020F0070038433060306800F00700B842E3
:1092E00001D00120E5E72878400705D56068E968E6
:1092F00020F4E060084360602878000706D56068C5
:10930000296920F4605040EAC100606000F038F83C
:109310006168084AC1F30311515CC84006490860FE
:1093200006480068FFF764FE0020C2E70020024004
:1093300000100240DEEA00081800002010000020A3
:109340000448054900684968044AC1F30221515C98
:10935000C84070471800002000100240EEEA0008E4
:109360000448054900684968044AC1F3C221515CB8
:10937000C84070471800002000100240EEEA0008C4
:1093800012A185B00FC98DE80F0014A0144A00681F
:1093900004905168134801F00C03042B10D0082BE3
:1093A0000ED1C1F38343C9031DF803000AD55168E8
:1093B00004AAC1F34041515C0A4A5043B0FBF1F0AA
:1093C00005B0704708494843FAE700000203040566
:1093D000060708090A0B0C0D0E0F10100102000001
:1093E0000010024000127A0000093D002DE9F84FFC
:1093F000040070D02078C04DC00749D06868C0F321
:109400008100012807D06868C0F38100022809D1D3
:109410006868C00306D52868800339D560680028CD
:10942000E7D035E06068B0F5803F0BD010B1B0F503
:10943000A02F11D0286820F480302860286820F4FC
:10944000802002E0286840F480302860606890B195
:10945000FFF742F906460AE0286840F480202860B9
:10946000F0E700BFFFF738F9801B642873D828683D
:109470008003F7D50CE0FFF72FF9064605E000BFA3
:10948000FFF72AF9801B6428F0D828688003F7D4F6
:1094900020789A4E80074FF001094FF0000839D527
:1094A000686810F00C0F07D06868C0F381000228CC
:1094B00009D16868C00306D42868800714D52069DC
:1094C000012808D110E02069B0B1C6F80090FFF77C
:1094D00003F9074605E00AE1FFF7FEF8C01B022882
:1094E000C4D828688007F7D52868616920F0F8009B
:1094F00040EAC10028600DE0C6F80080FFF7ECF8F4
:10950000074604E0FFF7E8F8C01B022823D82868C4
:109510008007F7D4207800072CD57948A169D9B104
:10952000C0F80090FFF7D8F8074604E0FFF7D4F83A
:10953000C01B02280FD8686A8007F7D571484FF41E
:10954000FA510068B0FBF1F0009000BF0098411E96
:109550000091FAD20EE080E0C0F80080FFF7BCF87E
:10956000074604E0FFF7B8F8C01B022875D8686A00
:109570008007F7D42078400760D5E8690027C0004D
:1095800008D4E86940F08050E861E869012700F0FC
:10959000805000905C480168C90513D40168834677
:1095A00041F480710160FFF797F8824606E000BF42
:1095B000FFF792F8A0EB0A0064284ED8DBF8000011
:1095C000C005F5D5E06801280AD008B1052813D0F8
:1095D000286A20F001002862286A20F0040002E0D6
:1095E000286A40F001002862E06841F2883B98B1A7
:1095F000FFF772F882460BE0286A40F00400286208
:10960000EEE700BFFFF768F8A0EB0A0159455AD80A
:10961000286A8007F6D50CE0FFF75EF8824605E081
:10962000FFF75AF8A0EB0A0159454CD8286A800781
:10963000F6D41FB1E86920F08050E861E06988B392
:109640006968C1F38101022944D00228C6F860800C
:1096500004D0FFF741F8044638E034E0FFF73CF867
:10966000074604E0FFF738F8C01B02282BD828680B
:109670008001F7D4206AB0F5803F05D16868A16801
:1096800020F4003008436860D4E9080108436968A1
:1096900021F4741108436860C6F86090FFF71CF865
:1096A000044606E025E000BFFFF716F8001B02287D
:1096B00009D828688001F7D51BE000BFFFF70CF838
:1096C000001B022802D90320BDE8F88F286880011A
:1096D000F4D40EE00128F7D06868226A00F48031E3
:1096E000914204D1616A00F47010884201D00120D7
:1096F000EAE70020E8E700000010024000004242D4
:1097000080044242180000200070004070B5040040
:1097100009D0606A002540B125616561A56294F8B1
:10972000510040B10CE0012070BD6068B0F5827F4F
:10973000F4D0E561F2E784F85050204600F040F89C
:10974000022084F851002068016821F04001016086
:10975000A088218900F4827001F404410843A189A2
:1097600001F400610843217C01F002010843217DDE
:1097700001F001010843218B01F400710843217FAE
:1097800001F03801084394F8201001F080010843EB
:10979000218D01F40051084321680860A06904216B
:1097A00001EA1040216848602068C16921F4006125
:1097B000C1616565012084F85100002070BD000082
:1097C00030B585B00024009401940294039400689D
:1097D0001449884223D11448816941F48051816140
:1097E000816901F480510491816941F00401816132
:1097F00080690E4D00F004000490A020009002202B
:1098000001900320039069462846FEF76BFE402036
:10981000CDE90004694628460294FEF763FE05B0D0
:1098200030BD00000030014000100240000801403F
:109830002DE9F84F044690F8500000271D461646C3
:10984000894601280DD04FF0010B84F850B0FEF787
:1098500043FF804694F85100BA46012804D00227FD
:1098600093E00220BDE8F88FB9F1000F73D0002E0D
:1098700071D0032084F85100C4F854A0C4F830908B
:10988000A686E686C4F838A0A4F83CA0A4F83EA0BA
:10989000C4F844A0C4F840A0A068B0F5004F09D1B6
:1098A0002068016821F0400101602068016841F4EE
:1098B0008041016020680168490603D4016841F0D5
:1098C00040010160E068B0F5006F606803D030B31C
:1098D000012E24D041E008B1012E1CD1206B21685B
:1098E0000088C86006E020688168890709D5216B77
:1098F0000988C160206B801C2063E08E401EE086DA
:1099000009E0FEF7E9FEA0EB0800A84202D3681CBC
:1099100001D031E07DB3E08E0028E4D120E0206B5F
:1099200021680078087306E020688168890709D5F6
:10993000216B09780173206B401C2063E08E401E70
:10994000E0860AE0FEF7C8FEA0EB0800A84203D3B9
:10995000681C02D010E017E06DB1E08E0028E3D162
:1099600042462946204601F0A5FA08B1202060654C
:10997000A06818B106E0FFE7032706E02068C16889
:1099800080680090606D00B1012784F851B084F8C0
:1099900050A0384666E710B5401EB0F1807F01D375
:1099A000012010BD4FF0E02460610F21601703F02B
:1099B0009BFC0020A06107202061002010BD10B595
:1099C00090F83C20012A22D0012280F83C20CA686D
:1099D0008C6822F4407222434C6822F48062224355
:1099E0000C6822F4006222430C6922F48052224364
:1099F0004C6922F400522243C969002322F48042B8
:109A00000A4301684A6480F83C30002010BD0220FF
:109A100010BD000070B590F83C20012A26D001242A
:109A200080F83C40022280F83D2003685A689D6817
:109A300022F070060A6832435A600D4B02689A425F
:109A400008D0B2F1804F05D00A4B9A4202D00A4B9F
:109A50009A4204D1496825F080031943916080F847
:109A60003D40002180F83C10084670BD022070BDCA
:109A7000002C0140000400400008004010B5040024
:109A800003D094F83D0010B107E0012010BD002084
:109A900084F83C00204600F01FF8022084F83D00C6
:109AA000211D206802F012FA012084F8460084F893
:109AB0003E0084F83F0084F8400084F8410084F8B8
:109AC000420084F8430084F8440084F8450084F898
:109AD0003D00002010BD000008B50068064988421E
:109AE00008D10648816941F400618161806900F410
:109AF0000060009008BD0000002C014000100240F2
:109B000070B5044690F83C00012817D0012584F870
:109B10003C50022084F83D002068826822F07702E1
:109B200022F47F4282600868502830D00DDC202863
:109B30004DD005DC98B310283BD148E0022070BD21
:109B4000302844D0402834D139E0602828D070280B
:109B500006D0B0F5805F2CD0B0F5005F29D10AE0C7
:109B6000CB68D1E90121206802F0F3F9206881680F
:109B700041F0770109E0CB68D1E90121206802F0CA
:109B8000E8F92068816841F48041816011E0CA6889
:109B90004968206802F092FA5021206807E016E038
:109BA000CA684968206802F09AFA6021206802F0C9
:109BB000DAF984F83D50002084F83C0070BDCA6892
:109BC0004968206802F07AFA40212068EFE72268AD
:109BD00001461046EBE7000000B585B0002100917A
:109BE00001910291039100680B49884212D10B4800
:109BF000816941F0040181618069694600F00400D7
:109C000004904FF48070009002200190039004486B
:109C1000FEF768FC05B000BD002C014000100240BA
:109C20000008014010B5044690F83C0001280AD015
:109C3000012084F83C0042B1042A0AD0082A0CD042
:109C40000C2A11D10DE0022010BD206802F094F919
:109C50000AE0206802F0B8F906E0206802F0E0F9B6
:109C600002E0206802F008FA002084F83C0010BDF1
:109C700010B5040003D094F83D0010B107E00120B6
:109C800010BD002084F83C00204600F01EF80220A1
:109C900084F83D00211D206802F018F9012084F8A5
:109CA000460084F83E0084F83F0084F8400084F8C1
:109CB000410084F8420084F8430084F8440084F8AA
:109CC000450084F83D00002010BD704710B50446E3
:109CD000022249B104290ED0082913D094F841007A
:109CE000012816D0012010BD94F83E000128F9D1BA
:109CF00084F83E200FE094F83F000128F2D184F868
:109D00003F2008E094F840000128EBD184F840207F
:109D100001E084F841200122206802F00DF90F498A
:109D20002068884203D1426C42F4004242642068B9
:109D3000884208D0B0F1804F05D00949884202D04E
:109D40000849884204D1816801F00701062903D03F
:109D5000016841F001010160002010BD002C0140AC
:109D6000000400400008004030B504460D4600687D
:109D7000002202F0E1F8174B41F2111120688A101D
:109D8000984209D1036A0B4206D1036A134203D1F8
:109D9000436C23F4004343642068036A0B4206D1FA
:109DA000016A114203D1016821F001010160012023
:109DB0003DB1042D08D0082D09D084F841000020C1
:109DC00030BD84F83E00FAE784F83F00F7E784F8F6
:109DD0004000F4E7002C014070477047F8B5026876
:109DE00004461068D168536910F00F0F4FF000055A
:109DF00053D003F0010601F4907737435FD0C207D8
:109E000005D0CA0503D5226C42F001022264420744
:109E100005D5DA0703D0226C42F0020222648207E1
:109E200005D5DA0703D0226C42F00402226402074F
:109E300007D501F02002324303D0226C42F0080221
:109E40002264226C002A34D0800604D5880602D50C
:109E5000204602F033FE20684069216CC0F3801078
:109E6000090700D430B3204602F010FE2068416993
:109E700049061BD5416921F040014161A06BA8B1A1
:109E800058494163A06BFEF7F7F9002811D0A06B89
:109E9000416B01B0BDE8F040084783060FD58B0643
:109EA0000DD52046BDE8F84002F008BE2046FFF779
:109EB00094FFF8BD2046FFF790FF2564F8BD266BA0
:109EC0002023012E52D1C60650D5CE064ED510689D
:109ED00050680090506940062AD5A16B0868406818
:109EE0000004000CEAD0A68D8642E7D9E085886997
:109EF000202818D0D06820F48070D0602068416994
:109F000021F0010141612068416921F04001416176
:109F100084F83E3025632068C16821F01001C160DB
:109F2000A06BFEF785F9A08DE18D401A81B219E092
:109F3000A08DE18D401A81B2E08D0028BED00029AD
:109F4000BCD0D06820F49070D0602068426922F0C4
:109F50000102426184F83E3025632068C26822F025
:109F60001002C2602046FFF737FFF8BD05062BD56B
:109F70000D0629D594F83D002128F6D1A068B0F54A
:109F8000805F01D12069B0B1206A411C2162216843
:109F900000784860E08C401E0004000CE084E4D1AE
:109FA0002068C16821F08001C1602068C16841F06B
:109FB0004001C160F8BD206A0088C0F3080050600D
:109FC000206A801C2062E5E74006F3D54806F1D5FB
:109FD000D168204621F04001D16084F83D3000F086
:109FE000A2F8F8BD7DCA000870B5040004D094F84A
:109FF0003D00002510B106E0012070BD84F83C5002
:10A00000204600F023F8242084F83D002068C16831
:10A0100021F40051C160204602F0ACFD20680169C6
:10A0200021F4904101612068416921F02A014161D8
:10A030002068C16841F40051C1602564202084F883
:10A040003D0084F83E00002070BD0000F0B585B0F2
:10A0500000240646009401940294039400682C495D
:10A06000884253D12B48816941F4804181618169E3
:10A0700001F480410491816941F0040181618069AA
:10A08000254D00F0040004904FF400700090022071
:10A0900001900320039069462846FEF723FA28150D
:10A0A000CDE90004694628460294FEF71BFA1C4DD0
:10A0B0001A48802701C5102091C5194845F8104954
:10A0C0006C61AC61EC61FEF7CDF908B1FDF7F2F916
:10A0D00075636E62124D114844351430C5E90004B1
:10A0E000C5E902472C616C61AC612846EC61FEF762
:10A0F000B9F908B1FDF7DEF9B56300221146252054
:10A100006E62FEF7C1FF2520FEF7B0FF05B0F0BD7F
:10A1100000380140001002400008014044000240A5
:10A120003402002070477047FEE701684A69D24355
:10A1300052050FD46FF480624A61002140F8301F4D
:10A14000202242738173026942F0040202610173AA
:10A1500001207047002070472DE9F84F0446C06A7F
:10A160001E4693460D4621680A6842F480620A60E2
:10A17000082807D0012805D010F5803F02D0206BB9
:10A18000112804D12068016841F4807101604FF00A
:10A1900001195B46002249462046009600F098F9D6
:10A1A0004FF4007840B120680068C00501D5C4F8BC
:10A1B00040800320BDE8F88F2069DFF884A0B0F567
:10A1C000804F0FD00620216800EAD51747F0F00035
:10A1D000086133465A460AF10601204600F0ACF900
:10A1E00058BB03E0E8B240F001001CE02168E8B28F
:10A1F000086133465A465146204600F09DF9E0B9C1
:10A200002068416981690091016841F480710160B1
:10A210005B46002249462046009600F059F9002886
:10A22000C1D147F0F1002168086133465A465146D2
:10A23000204600F081F90028BCD00120BAE70000D8
:10A2400002000100F8B50446C06A1E460D461746D6
:10A25000082807D0012805D010F5803F02D0206BD8
:10A26000122804D12068016841F48071016013460E
:10A2700000224FF001112046009600F029F940B16C
:10A2800020680068C00502D54FF4007020640320E8
:10A29000F8BD2069B0F5804F0ED00620216800EA95
:10A2A000D51040F0F000086133463A460B4920468D
:10A2B00000F042F978B902E005F0FE0000E0E8B2F3
:10A2C00021680861054933463A46891F204600F057
:10A2D00033F90028DCD00120F8BD0000080001009F
:10A2E0002DE9F84F0446006889460B9D01689846A1
:10A2F000174641F4806101602068016841F4807173
:10A30000016000954FF0011B0022594620460A9B30
:10A3100000F0DEF84FF4007A40B120680068C00514
:10A3200001D5C4F840A00320BDE8F88F216809F0EA
:10A33000FE0008612B46284920460A9A00F0FCF8E6
:10A34000F0BB20684169806900902A4620460A993E
:10A3500000F070F940B1206C04283AD120680168FF
:10A3600041F40071016034E0FEB2B8F1010F09D090
:10A370002168380A08612A4620460A9900F05AF9ED
:10A380000028E8D1206806612A4620460A9900F094
:10A3900051F90028DFD12068016841F48071016023
:10A3A00000950022594620460A9B00F091F80028AB
:10A3B000B3D1216809F0FF0040F00100086100E01E
:10A3C00007E02B46044920460A9A00F0B5F8002819
:10A3D000AAD00120A8E70000020001002DE9F843FF
:10A3E000044600680D46DDE9089701689846164660
:10A3F00041F4807101604B4600224FF0011120466C
:10A40000009700F065F848B120680068C00502D5E3
:10A410004FF4007020640320BDE8F883216805F044
:10A42000FE0008613B464A461549204600F084F884
:10A4300088B920684169806900903A4649462046BB
:10A4400000F0F8F848B1206C042804D120680168B5
:10A4500041F4007101600120DEE7F5B2B8F1010FAF
:10A4600009D02168300A08613A464946204600F082
:10A47000E1F80028E7D1206805610020CCE7000062
:10A480000200010070B516460D4604460DE0204658
:10A49000FFF74BFE08B1012070BD681C05D0FEF728
:10A4A0001BF9801BA84207D835B120684069C0431A
:10A4B0004007ECD4002070BD002044F8300F20216C
:10A4C0006173A073216941F0200121612073E2E7EB
:10A4D0002DE9F0471E4690460D460446C1F3074756
:10A4E000DDF8209008E0701C06D0FEF7F5F8A0EB30
:10A4F0000900B0420FD876B12068012F18D08069CA
:10A5000025EA00000004000C14D000214145EAD0E7
:10A510000020BDE8F087002044F8300F202161734F
:10A52000A073216941F02001216120730120F0E72F
:10A530004069E5E70121E9E72DE9F0479A469146B0
:10A540000E46044600254FF02008C1F3074725E0DA
:10A5500020684069C043400514D42068016841F474
:10A560000071016021686FF480604861256384F8A0
:10A570003D8084F83E50206C40F00400206484F854
:10A580003C501FE0B9F1FF3F08D0FEF7A5F8A0EB63
:10A590000A0149450CD8B9F1000F09D02068012FF4
:10A5A00013D0806926EA00000004000C0BD0CFE72E
:10A5B00044F8305F84F80D80A573206940F02000D6
:10A5C000206125730120BDE8F0874069EAE72DE9A5
:10A5D000F041002590460E460446202717E04069CA
:10A5E000C043C0060CD454F8301B6FF01000486113
:10A5F00044F810596777A577206A2062257717E01D
:10A60000FEF76AF8A0EB0800B04208D83EB1206817
:10A610004169C9434906E2D40020BDE8F08144F80D
:10A62000305F6773A573206940F0200020612573B7
:10A630000120F2E770B516460D4604460DE02046AF
:10A64000FFF773FD08B1012070BD681C05D0FEF74F
:10A6500043F8801BA84207D835B120684069C04341
:10A660000006ECD4002070BD002044F8300F2021FB
:10A670006173A073216941F0200121612073E2E739
:10A680001CB5010A104C8DF800108DF80400002252
:10A6900004212046FEF71BF8012202212046FEF786
:10A6A00016F80A23012269460848FFF7C1F80A2371
:10A6B000012201A90548FFF7BBF801220421204629
:10A6C000FEF705F81CBD0000000801405001002005
:10A6D0002DE9F0478046DDF820901F4616460C46CF
:10A6E00042450FD3A7420DD300F0D8F808E0454605
:10A6F00003E04846FFF7C4FF6D1CB542F9D9641C5E
:10A70000BC42F4D9BDE8F08710B500F0A7F81120DD
:10A7100000F012F97820FDF7D3FEB12000F00CF91B
:10A72000012000F0EDF82C2000F0EAF82D2000F0D8
:10A73000E7F8B22000F000F9012000F0E1F82C2049
:10A7400000F0DEF82D2000F0DBF8B32000F0F4F884
:10A75000012000F0D5F82C2000F0D2F82D2000F0D8
:10A76000CFF8012000F0CCF82C2000F0C9F82D2003
:10A7700000F0C6F8B42000F0DFF8072000F0C0F8C1
:10A78000C02000F0D9F8A22000F0BAF8022000F0B2
:10A79000B7F8842000F0B4F8C12000F0CDF8C5204F
:10A7A00000F0AEF8C22000F0C7F80A2000F0A8F8C8
:10A7B000002000F0A5F8C32000F0BEF88A2000F0C9
:10A7C0009FF82A2000F09CF8C42000F0B5F88A20F9
:10A7D00000F096F8EE2000F093F8C52000F0ACF8F9
:10A7E0000E2000F08DF8362000F0A6F8602000F072
:10A7F00087F82A2000F0A0F8002000F081F801205E
:10A8000000F07EF8002000F07BF8A02000F078F83F
:10A810002B2000F091F8002000F072F8022000F0E8
:10A820006FF8002000F06CF8812000F069F8F0204B
:10A8300000F082F8012000F063F8F62000F07CF8C8
:10A84000002000F05DF83A2000F076F8052000F0D6
:10A8500057F8BDE81040292000F06EB870B501220D
:10A860000D4D140221462846FDF731FF0120FDF76A
:10A8700027FE002221462846FDF729FF0220FDF78A
:10A880001FFE012221462846FDF721FFBDE870404A
:10A890000A20FDF715BE0000000C01402DE9F04133
:10A8A00007461C4615460E462A2000F045F80020B3
:10A8B00000F026F87F1CF8B200F022F8002000F02B
:10A8C0001FF86D1CE8B200F01BF82B2000F034F8E4
:10A8D000002000F015F8B61CF0B200F011F80020CE
:10A8E00000F00EF8A41CE0B200F00AF8BDE8F04158
:10A8F0002C2000F021B80B460246FFF7CFBF000026
:10A9000031B50B4C002204212046FDF7E0FE012268
:10A9100002212046FDF7DBFE01231A466946054861
:10A92000FEF786FF012204212046FDF7D0FE38BD48
:10A93000000801405001002031B50B4C00220421D9
:10A940002046FDF7C4FE002202212046FDF7BFFE8F
:10A9500001231A4669460548FEF76AFF01220421D1
:10A960002046FDF7B4FE38BD00080140500100202C
:10A970003EB5002411480094019402940E4984606D
:10A98000016004730475012505614FF46021446082
:10A99000C161FDF793FB08B1FCF78CFD1020CDE9F8
:10A9A0000005694602940548FDF70AFB002801D01E
:10A9B000FCF780FD3EBD000000240140CC000020DB
:10A9C0000D4808B5416941F001014161406900222B
:10A9D00000F00100009011460E20FEF755FB0E20FE
:10A9E000FEF744FB002211460F20FEF74DFBBDE8A9
:10A9F00008400F20FEF73ABB001002402DE9F04757
:10AA000086B000244648009401940294039481691E
:10AA100041F010018161816901F0100104918169A7
:10AA200041F020018161816901F020010491816977
:10AA300041F004018161816901F00401049181699F
:10AA400041F0080181618069012200F00800DFF80F
:10AA5000D4805503049029464046FDF738FEAE00E9
:10AA6000002231464046FDF732FEDFF8BC9000225E
:10AA700006214846FDF72BFEDFF8B0A000224FF27A
:10AA800003315046FDF723FE012204215046FDF715
:10AA90001EFE0095032701250397CDE90154694661
:10AAA0004046FDF71FFDA8038DE83100694640468A
:10AAB000FDF718FD0096CDE901546946404603951F
:10AAC000FDF710FD48F2090002268DE851006946A5
:10AAD0004846FDF707FD0620CDE90005CDE9024611
